{
  "contractName": "kryptok",
  "abi": [
    {
      "inputs": [],
      "stateMutability": "nonpayable",
      "type": "constructor"
    },
    {
      "anonymous": false,
      "inputs": [
        {
          "indexed": false,
          "internalType": "uint256",
          "name": "id",
          "type": "uint256"
        },
        {
          "indexed": false,
          "internalType": "address",
          "name": "guest",
          "type": "address"
        },
        {
          "indexed": false,
          "internalType": "uint256",
          "name": "numberfDays",
          "type": "uint256"
        },
        {
          "indexed": false,
          "internalType": "uint256",
          "name": "price",
          "type": "uint256"
        }
      ],
      "name": "PropertyBookedEvent",
      "type": "event"
    },
    {
      "anonymous": false,
      "inputs": [
        {
          "indexed": false,
          "internalType": "string",
          "name": "name",
          "type": "string"
        },
        {
          "indexed": false,
          "internalType": "string",
          "name": "propertyAddress",
          "type": "string"
        },
        {
          "indexed": false,
          "internalType": "string",
          "name": "description",
          "type": "string"
        },
        {
          "indexed": false,
          "internalType": "string",
          "name": "imgUrl",
          "type": "string"
        },
        {
          "indexed": false,
          "internalType": "uint256",
          "name": "pricePerDay",
          "type": "uint256"
        },
        {
          "indexed": false,
          "internalType": "uint256",
          "name": "id",
          "type": "uint256"
        }
      ],
      "name": "PropertyListedEvent",
      "type": "event"
    },
    {
      "inputs": [],
      "name": "counter",
      "outputs": [
        {
          "internalType": "uint256",
          "name": "",
          "type": "uint256"
        }
      ],
      "stateMutability": "view",
      "type": "function",
      "constant": true
    },
    {
      "inputs": [],
      "name": "owner",
      "outputs": [
        {
          "internalType": "address",
          "name": "",
          "type": "address"
        }
      ],
      "stateMutability": "view",
      "type": "function",
      "constant": true
    },
    {
      "inputs": [
        {
          "internalType": "uint256",
          "name": "",
          "type": "uint256"
        }
      ],
      "name": "properties",
      "outputs": [
        {
          "internalType": "address",
          "name": "owner",
          "type": "address"
        },
        {
          "internalType": "address",
          "name": "guest",
          "type": "address"
        },
        {
          "internalType": "string",
          "name": "name",
          "type": "string"
        },
        {
          "internalType": "string",
          "name": "propertyAddress",
          "type": "string"
        },
        {
          "internalType": "string",
          "name": "description",
          "type": "string"
        },
        {
          "internalType": "string",
          "name": "imgUrl",
          "type": "string"
        },
        {
          "internalType": "uint256",
          "name": "bookingStartsAt",
          "type": "uint256"
        },
        {
          "internalType": "uint256",
          "name": "bookingEndsAt",
          "type": "uint256"
        },
        {
          "internalType": "uint256",
          "name": "pricePerDay",
          "type": "uint256"
        },
        {
          "internalType": "uint256",
          "name": "id",
          "type": "uint256"
        },
        {
          "internalType": "bool",
          "name": "isBooked",
          "type": "bool"
        }
      ],
      "stateMutability": "view",
      "type": "function",
      "constant": true
    },
    {
      "inputs": [
        {
          "internalType": "uint256",
          "name": "",
          "type": "uint256"
        }
      ],
      "name": "rentalIds",
      "outputs": [
        {
          "internalType": "uint256",
          "name": "",
          "type": "uint256"
        }
      ],
      "stateMutability": "view",
      "type": "function",
      "constant": true
    },
    {
      "inputs": [
        {
          "internalType": "string",
          "name": "name",
          "type": "string"
        },
        {
          "internalType": "string",
          "name": "propertyAddress",
          "type": "string"
        },
        {
          "internalType": "string",
          "name": "description",
          "type": "string"
        },
        {
          "internalType": "string",
          "name": "imgUrl",
          "type": "string"
        },
        {
          "internalType": "uint256",
          "name": "pricePerDay",
          "type": "uint256"
        }
      ],
      "name": "listProperty",
      "outputs": [],
      "stateMutability": "nonpayable",
      "type": "function"
    },
    {
      "inputs": [
        {
          "internalType": "uint256",
          "name": "id",
          "type": "uint256"
        },
        {
          "internalType": "uint256",
          "name": "startDate",
          "type": "uint256"
        },
        {
          "internalType": "uint256",
          "name": "endDate",
          "type": "uint256"
        }
      ],
      "name": "getDuePrice",
      "outputs": [
        {
          "internalType": "uint256",
          "name": "",
          "type": "uint256"
        }
      ],
      "stateMutability": "view",
      "type": "function",
      "constant": true
    },
    {
      "inputs": [
        {
          "internalType": "uint256",
          "name": "propertyId",
          "type": "uint256"
        },
        {
          "internalType": "uint256",
          "name": "startDate",
          "type": "uint256"
        },
        {
          "internalType": "uint256",
          "name": "endDate",
          "type": "uint256"
        }
      ],
      "name": "bookProperty",
      "outputs": [],
      "stateMutability": "payable",
      "type": "function",
      "payable": true
    }
  ],
  "bytecode": "0x608060405234801561001057600080fd5b506000600181905550336000806101000a81548173ffffffffffffffffffffffffffffffffffffffff021916908373ffffffffffffffffffffffffffffffffffffffff160217905550611361806100686000396000f3fe6080604052600436106100705760003560e01c80636989a6491161004e5780636989a649146101065780638da5cb5b14610122578063ebfa74c91461014d578063f7b108081461018a57610070565b80632780842a1461007557806346e17d4a146100b257806361bc221a146100db575b600080fd5b34801561008157600080fd5b5061009c6004803603810190610097919061093a565b6101d1565b6040516100a9919061099c565b60405180910390f35b3480156100be57600080fd5b506100d960048036038101906100d49190610afd565b610223565b005b3480156100e757600080fd5b506100f06103de565b6040516100fd919061099c565b60405180910390f35b610120600480360381019061011b919061093a565b6103e4565b005b34801561012e57600080fd5b506101376105e1565b6040516101449190610c29565b60405180910390f35b34801561015957600080fd5b50610174600480360381019061016f9190610c44565b610605565b604051610181919061099c565b60405180910390f35b34801561019657600080fd5b506101b160048036038101906101ac9190610c44565b610629565b6040516101c89b9a99989796959493929190610d0b565b60405180910390f35b60008060036000868152602001908152602001600020905060006305265c0085856101fc9190610e01565b6102069190610e64565b90508160080154816102189190610e95565b925050509392505050565b600060036000600154815260200190815260200160002090508581600201908161024d91906110e3565b508481600301908161025f91906110e3565b508381600401908161027191906110e3565b508281600501908161028391906110e3565b508181600801819055506001548160090181905550600081600a0160006101000a81548160ff0219169083151502179055506000816006018190555060008160070181905550338160000160006101000a81548173ffffffffffffffffffffffffffffffffffffffff021916908373ffffffffffffffffffffffffffffffffffffffff16021790555060008160010160006101000a81548173ffffffffffffffffffffffffffffffffffffffff021916908373ffffffffffffffffffffffffffffffffffffffff160217905550600260015490806001815401808255809150506001900390600052602060002001600090919091909150557ffd4c11c8479504da167b6038cb455ff18006f27fbe31be2b2d65f0acdd88729386868686866001546040516103b6969594939291906111b5565b60405180910390a1600160008154809291906103d190611232565b9190505550505050505050565b60015481565b60006305265c0083836103f79190610e01565b6104019190610e64565b90506003600085815260200190815260200160002060080154816104259190610e95565b341015610467576040517f08c379a000000000000000000000000000000000000000000000000000000000815260040161045e906112c6565b60405180910390fd5b6003600085815260200190815260200160002060000160009054906101000a900473ffffffffffffffffffffffffffffffffffffffff1673ffffffffffffffffffffffffffffffffffffffff166108fc349081150290604051600060405180830381858888f193505050501580156104e3573d6000803e3d6000fd5b50600160036000868152602001908152602001600020600a0160006101000a81548160ff021916908315150217905550826003600086815260200190815260200160002060060181905550816003600086815260200190815260200160002060070181905550336003600086815260200190815260200160002060010160006101000a81548173ffffffffffffffffffffffffffffffffffffffff021916908373ffffffffffffffffffffffffffffffffffffffff1602179055507fd4b9cad7e4cd8ddab7b1472716b72454c8dae404ca7e5930058c5e9099dafdbf843383346040516105d394939291906112e6565b60405180910390a150505050565b60008054906101000a900473ffffffffffffffffffffffffffffffffffffffff1681565b6002818154811061061557600080fd5b906000526020600020016000915090505481565b60036020528060005260406000206000915090508060000160009054906101000a900473ffffffffffffffffffffffffffffffffffffffff16908060010160009054906101000a900473ffffffffffffffffffffffffffffffffffffffff169080600201805461069890610f06565b80601f01602080910402602001604051908101604052809291908181526020018280546106c490610f06565b80156107115780601f106106e657610100808354040283529160200191610711565b820191906000526020600020905b8154815290600101906020018083116106f457829003601f168201915b50505050509080600301805461072690610f06565b80601f016020809104026020016040519081016040528092919081815260200182805461075290610f06565b801561079f5780601f106107745761010080835404028352916020019161079f565b820191906000526020600020905b81548152906001019060200180831161078257829003601f168201915b5050505050908060040180546107b490610f06565b80601f01602080910402602001604051908101604052809291908181526020018280546107e090610f06565b801561082d5780601f106108025761010080835404028352916020019161082d565b820191906000526020600020905b81548152906001019060200180831161081057829003601f168201915b50505050509080600501805461084290610f06565b80601f016020809104026020016040519081016040528092919081815260200182805461086e90610f06565b80156108bb5780601f10610890576101008083540402835291602001916108bb565b820191906000526020600020905b81548152906001019060200180831161089e57829003601f168201915b50505050509080600601549080600701549080600801549080600901549080600a0160009054906101000a900460ff1690508b565b6000604051905090565b600080fd5b600080fd5b6000819050919050565b61091781610904565b811461092257600080fd5b50565b6000813590506109348161090e565b92915050565b600080600060608486031215610953576109526108fa565b5b600061096186828701610925565b935050602061097286828701610925565b925050604061098386828701610925565b9150509250925092565b61099681610904565b82525050565b60006020820190506109b1600083018461098d565b92915050565b600080fd5b600080fd5b6000601f19601f8301169050919050565b7f4e487b7100000000000000000000000000000000000000000000000000000000600052604160045260246000fd5b610a0a826109c1565b810181811067ffffffffffffffff82111715610a2957610a286109d2565b5b80604052505050565b6000610a3c6108f0565b9050610a488282610a01565b919050565b600067ffffffffffffffff821115610a6857610a676109d2565b5b610a71826109c1565b9050602081019050919050565b82818337600083830152505050565b6000610aa0610a9b84610a4d565b610a32565b905082815260208101848484011115610abc57610abb6109bc565b5b610ac7848285610a7e565b509392505050565b600082601f830112610ae457610ae36109b7565b5b8135610af4848260208601610a8d565b91505092915050565b600080600080600060a08688031215610b1957610b186108fa565b5b600086013567ffffffffffffffff811115610b3757610b366108ff565b5b610b4388828901610acf565b955050602086013567ffffffffffffffff811115610b6457610b636108ff565b5b610b7088828901610acf565b945050604086013567ffffffffffffffff811115610b9157610b906108ff565b5b610b9d88828901610acf565b935050606086013567ffffffffffffffff811115610bbe57610bbd6108ff565b5b610bca88828901610acf565b9250506080610bdb88828901610925565b9150509295509295909350565b600073ffffffffffffffffffffffffffffffffffffffff82169050919050565b6000610c1382610be8565b9050919050565b610c2381610c08565b82525050565b6000602082019050610c3e6000830184610c1a565b92915050565b600060208284031215610c5a57610c596108fa565b5b6000610c6884828501610925565b91505092915050565b600081519050919050565b600082825260208201905092915050565b60005b83811015610cab578082015181840152602081019050610c90565b60008484015250505050565b6000610cc282610c71565b610ccc8185610c7c565b9350610cdc818560208601610c8d565b610ce5816109c1565b840191505092915050565b60008115159050919050565b610d0581610cf0565b82525050565b600061016082019050610d21600083018e610c1a565b610d2e602083018d610c1a565b8181036040830152610d40818c610cb7565b90508181036060830152610d54818b610cb7565b90508181036080830152610d68818a610cb7565b905081810360a0830152610d7c8189610cb7565b9050610d8b60c083018861098d565b610d9860e083018761098d565b610da661010083018661098d565b610db461012083018561098d565b610dc2610140830184610cfc565b9c9b505050505050505050505050565b7f4e487b7100000000000000000000000000000000000000000000000000000000600052601160045260246000fd5b6000610e0c82610904565b9150610e1783610904565b9250828203905081811115610e2f57610e2e610dd2565b5b92915050565b7f4e487b7100000000000000000000000000000000000000000000000000000000600052601260045260246000fd5b6000610e6f82610904565b9150610e7a83610904565b925082610e8a57610e89610e35565b5b828204905092915050565b6000610ea082610904565b9150610eab83610904565b9250828202610eb981610904565b91508282048414831517610ed057610ecf610dd2565b5b5092915050565b7f4e487b7100000000000000000000000000000000000000000000000000000000600052602260045260246000fd5b60006002820490506001821680610f1e57607f821691505b602082108103610f3157610f30610ed7565b5b50919050565b60008190508160005260206000209050919050565b60006020601f8301049050919050565b600082821b905092915050565b600060088302610f997fffffffffffffffffffffffffffffffffffffffffffffffffffffffffffffffff82610f5c565b610fa38683610f5c565b95508019841693508086168417925050509392505050565b6000819050919050565b6000610fe0610fdb610fd684610904565b610fbb565b610904565b9050919050565b6000819050919050565b610ffa83610fc5565b61100e61100682610fe7565b848454610f69565b825550505050565b600090565b611023611016565b61102e818484610ff1565b505050565b5b818110156110525761104760008261101b565b600181019050611034565b5050565b601f8211156110975761106881610f37565b61107184610f4c565b81016020851015611080578190505b61109461108c85610f4c565b830182611033565b50505b505050565b600082821c905092915050565b60006110ba6000198460080261109c565b1980831691505092915050565b60006110d383836110a9565b9150826002028217905092915050565b6110ec82610c71565b67ffffffffffffffff811115611105576111046109d2565b5b61110f8254610f06565b61111a828285611056565b600060209050601f83116001811461114d576000841561113b578287015190505b61114585826110c7565b8655506111ad565b601f19841661115b86610f37565b60005b828110156111835784890151825560018201915060208501945060208101905061115e565b868310156111a0578489015161119c601f8916826110a9565b8355505b6001600288020188555050505b505050505050565b600060c08201905081810360008301526111cf8189610cb7565b905081810360208301526111e38188610cb7565b905081810360408301526111f78187610cb7565b9050818103606083015261120b8186610cb7565b905061121a608083018561098d565b61122760a083018461098d565b979650505050505050565b600061123d82610904565b91507fffffffffffffffffffffffffffffffffffffffffffffffffffffffffffffffff820361126f5761126e610dd2565b5b600182019050919050565b7f53656e64206d6f72652045544800000000000000000000000000000000000000600082015250565b60006112b0600d83610c7c565b91506112bb8261127a565b602082019050919050565b600060208201905081810360008301526112df816112a3565b9050919050565b60006080820190506112fb600083018761098d565b6113086020830186610c1a565b611315604083018561098d565b611322606083018461098d565b9594505050505056fea264697066735822122027614541422162a6df872a0c10901a0bd9b00974d79ebe32037e0ef5dc40f25a64736f6c63430008130033",
  "immutableReferences": {},
  "source": "// SPDX-License-Identifier: MIT\npragma solidity ^0.8.16;\n\n\ncontract kryptok {\n   address public owner;\n   uint256 public counter;\n   uint256[] public rentalIds;\n\n\n   constructor() {\n       counter = 0;\n       owner = msg.sender;\n   }\n\n\n   struct PropertyInfo {\n       address owner;\n       address guest;\n       string name;\n       string propertyAddress;\n       string description;\n       string imgUrl;\n       uint256 bookingStartsAt;\n       uint256 bookingEndsAt;\n       uint256 pricePerDay;\n       uint256 id;\n       bool isBooked;\n   }\n\n\n   event PropertyListedEvent(\n       string name,\n       string propertyAddress,\n       string description,\n       string imgUrl,\n       uint256 pricePerDay,\n       uint256 id\n   );\n\n\n   event PropertyBookedEvent(\n       uint256 id,\n       address guest,\n       uint256 numberfDays,\n       uint256 price\n   );\n\n\n   mapping(uint256 => PropertyInfo) public properties;\n\n\n   function listProperty(\n       string memory name,\n       string memory propertyAddress,\n       string memory description,\n       string memory imgUrl,\n       uint256 pricePerDay\n   ) public {\n       PropertyInfo storage newProperty = properties[counter];\n\n\n       newProperty.name = name;\n       newProperty.propertyAddress = propertyAddress;\n       newProperty.description = description;\n       newProperty.imgUrl = imgUrl;\n       newProperty.pricePerDay = pricePerDay;\n       newProperty.id = counter;\n       newProperty.isBooked = false;\n       newProperty.bookingStartsAt = 0;\n       newProperty.bookingEndsAt = 0;\n       newProperty.owner = msg.sender;\n       newProperty.guest = address(0);\n\n\n       rentalIds.push(counter);\n\n\n       emit PropertyListedEvent(\n           name,\n           propertyAddress,\n           description,\n           imgUrl,\n           pricePerDay,\n           counter\n       );\n       counter++;\n   }\n\nfunction getDuePrice(\n    uint id,\n    uint256 startDate,\n    uint256 endDate\n)public view returns(uint256){\n    PropertyInfo storage property = properties[id];\n    uint256 number0fDays = (endDate - startDate) / 86400000;\n    return number0fDays * property.pricePerDay;\n}\n\n   function bookProperty(\n       uint256 propertyId,\n       uint256 startDate,\n       uint256 endDate\n   ) public payable {\n       uint256 number0fDays = (endDate - startDate) / 86400000;\n\n\n       require(\n           msg.value >= number0fDays * properties[propertyId]. pricePerDay,\n           \"Send more ETH\"\n       );\n       payable(properties[propertyId].owner).transfer(msg.value);\n\n\n       properties[propertyId].isBooked = true;\n       properties[propertyId].bookingStartsAt = startDate;\n       properties[propertyId].bookingEndsAt = endDate;\n       properties[propertyId].guest = msg.sender;\n\n\n       emit PropertyBookedEvent(\n           propertyId,\n           msg.sender,\n           number0fDays,\n           msg.value\n       );\n   }\n}\n",
  "sourcePath": "/Users/himanshubhalla/Desktop/ait/folder/contracts/kryptok.sol",
  "compiler": {
    "name": "solc",
    "version": "0.8.19+commit.7dd6d404.Emscripten.clang"
  },
  "schemaVersion": "3.4.13",
  "updatedAt": "2023-05-03T04:18:50.198Z",
  "networkType": "ethereum",
  "devdoc": {
    "kind": "dev",
    "methods": {},
    "version": 1
  },
  "userdoc": {
    "kind": "user",
    "methods": {},
    "version": 1
  }
}